:020000040800F2
:1000000050040020C10100087F0E00081D0D0008EB
:100010007D0E0008CD020008A112000800000000BB
:10002000000000000000000000000000550F000864
:10003000CF02000800000000810E0008570F0008E2
:10004000DB010008DB010008DB010008DB01000820
:10005000DB010008DB010008DB010008DB01000810
:10006000DB010008DB010008DB010008DB01000800
:10007000DB010008DB010008DB010008DB010008F0
:10008000DB010008DB010008DB010008DB010008E0
:10009000DB010008DB010008DB010008DB010008D0
:1000A000DB010008DB010008DB010008DB010008C0
:1000B000DB010008DB010008DB010008DB010008B0
:1000C000DB010008DB010008DB010008DB010008A0
:1000D000DB010008DB010008DB010008DB01000890
:1000E000DB010008DB010008DB010008DB01000880
:1000F000DB010008DB010008DB010008DB01000870
:10010000DB010008DB010008DB010008DB0100085F
:10011000DB010008DB010008DB010008DB0100084F
:10012000DB010008DB010008DB010008DB0100083F
:10013000DB010008DB010008DB010008DB0100082F
:10014000DB010008DB010008DB010008DB0100081F
:10015000DB010008DB010008DB010008DB0100080F
:10016000DB010008DB010008DB010008DB010008FF
:10017000DB010008DB010008DB01000800000000D3
:10018000DB010008DB010008DB010008DB010008DF
:10019000DB010008DB010008DB010008DB010008CF
:1001A0000000000000000000DB010008DFF80CD0B8
:1001B00000F07AF800480047E112000850040020DF
:1001C0000648804706480047FEE7FEE7FEE7FEE7F1
:1001D000FEE7FEE7FEE7FEE7FEE7FEE7E50F0008C5
:1001E000AD0100082DE9F05F0546002092469B46D0
:1001F00088460646814640241BE02846414647463D
:10020000224600F041F853465A46C01A914110D395
:1002100011461846224600F028F82D1A67EB01080F
:100220004F4622460120002100F01FF817EB00097D
:100230004E41201EA4F10104DFDC484631462A4627
:100240004346BDE8F09FD2B201E000F8012B491E01
:10025000FBD270470022F6E710B513460A46044663
:100260001946FFF7F0FF204610BD202A04DB203A94
:1002700000FA02F1002070479140C2F1200320FAF9
:1002800003F3194390407047202A04DB203A21FAF7
:1002900002F00021704721FA02F3D040C2F120029F
:1002A0009140084319467047064C074D06E0E06848
:1002B00040F0010394E8070098471034AC42F6D3AD
:1002C000FFF778FF88180008A8180008FEE77047B5
:1002D0007047000070B5044600F006F90546601C42
:1002E00002D004480078044400F0FEF8401BA0420D
:1002F000FAD370BD000000202DE9F84FDFF890B16F
:1003000000224FF001084FF0030A4FF00F090BF1E4
:10031000040E00BF0B6808FA02F42340A3426ED11A
:100320004D68022D01D0122D0ED1D50800EB850CA1
:10033000DCF820505607F70E09FA07F6B5430E69A8
:10034000BE402E43CCF82060066855000F790AFAAB
:1003500005FC07F0030726EA0C06AF4037430760A9
:100360004E68012E05D0022E03D0112E01D0122E80
:100370000ED18768CE6827EA0C07AE403E43866000
:100380004668A6430C79C4F3001494403443446097
:10039000C4688E6824EA0C04AE402643C6604C68EC
:1003A000E4006FD53B4C256845F480452560246802
:1003B00022F0030504F480440094374C2E19D6F83B
:1003C000084895072F0F09FA07F5AC43334DA842AB
:1003D00001D100252EE0324DA84201D1012529E0AE
:1003E000304DA84201D1022524E02F4DA84201D171
:1003F00003251FE02D4DA84202D104251AE041E05B
:100400002B4DA84201D1052514E02A4DA84201D167
:1004100006250FE0284DA84201D107250AE0274D07
:10042000A84201D1082505E0254DA84201D10925A2
:1004300000E00A25BD402543C6F80858DBF8004017
:100440005D464E689C43F60300D51C432C60DEF8E5
:10045000004075464E689C43B60300D51C432C6093
:100460000B4D08352C684E689C43F60200D51C43A2
:100470002C60074D0C352C684E689C43B60200D5A5
:100480001C432C60521C102AFFF444AFBDE8F88FC7
:10049000003C01404438024000300140000002406E
:1004A0000004024000080240000C0240001002401C
:1004B0000014024000180240001C024000200240CC
:1004C000002402400069084000D0012070474269C2
:1004D00031EA020200D10904816170470AB18161E9
:1004E00070470904FBE7000001488068704700007E
:1004F0000000002002488168027811448160704742
:10050000000000200B4810B5016841F40071016043
:10051000016841F480610160016841F4807101600B
:10052000032000F061F8002000F006F800F024F845
:10053000002010BD003C024070B50D4D04464FF444
:100540007A712878B1FBF0F00A490968B1FBF0F044
:1005500000F0ECFA48B9102C07D200222146501EB8
:1005600000F022F800206C6070BD012070BD00001A
:10057000000000200C0000200A4808B5016841F482
:1005800080410160006800F4804000900548001F31
:10059000016841F080510160006800F080500090D7
:1005A00008BD000044380240F0B40E4B1B680C46F6
:1005B000C3F30223C3F10705042D00D90425191D37
:1005C000072901D2002300E0DB1E012606FA05F10F
:1005D000491E214099409E40761E16403143F0BC92
:1005E00000F05FBE0CED00E0064900F0070208686D
:1005F0004FF6FF03184040EA0220034A1043086008
:10060000704700000CED00E00000FA052DE9F8430A
:100610001748016841F0805101600068154F00F0F3
:100620008050012600903E64FFF75EFF05464FF4C0
:100630007A78114C05E000BFFFF756FF401B40459C
:100640000DD86068C003F7D57E64FFF74DFF0546FF
:10065000464607E0FFF748FF401BB04202D903209F
:10066000BDE8F88360688003F4D50020F8E7000057
:100670004038024000000E42007000402DE9F04773
:100680000E46050065D0DFF81481D8F80000F7B2F7
:1006900000F00F00B04207D288F80070D8F80000D0
:1006A00000F00F00B04254D128683D4C810712D5AC
:1006B000400703D5206840F4E05020602878000708
:1006C00003D5206840F4604020602068A96820F0CD
:1006D000F000084320602878C0072DD030496868B2
:1006E0000839012812D0022813D0032811D0096834
:1006F000890700292DDA216821F0030101432160D7
:10070000FFF7F2FE814641F2883A0EE0096889035C
:10071000EFE709688901ECE7FFF7E6FEA0EB0901C6
:10072000514502D90320BDE8F0872068696800F0D0
:100730000C00B0EB810FEFD1D8F80010404601F06B
:100740000F01B14207D90770006800F00F00B042F6
:1007500001D00120E7E72878400705D52068E9683F
:1007600020F4E050084320602878000706D5206870
:10077000296920F4604040EAC100206000F016F8CA
:100780002168084AC1F30311515CC840064908605A
:100790000020FFF7D1FE0020C5E70000003C02402A
:1007A000083802402C1600080C000020154810B52F
:1007B000006810F00C02144813D01449042A0FD01A
:1007C000082A0ED10F4C241F2268236802F03F0232
:1007D0005B0207D52068C0F38810A0FB010106E08A
:1007E000084610BD2168C1F38811A1FB0001002358
:1007F000FFF7F8FC2168C1F30141491C4900B0FB37
:10080000F1F010BD083802400024F400001BB700CE
:100810002DE9F84F050076D02878DFF8F8B2BE4C05
:10082000C00749D0DBF800105846C1F38101012907
:1008300008D00068C0F3810002280AD1201D00689A
:10084000400206D52068800336D568680028E2D0CB
:1008500032E06868B0F5803F10D0B0F5A02F206876
:1008600010D020F480302060206820F480202060A8
:100870006868A0B1FFF738FE06460CE0206840F437
:100880008030F4E740F480202060F7E7FFF72CFE8B
:10089000801B642873D820688003F7D50CE0FFF72D
:1008A00023FE064605E000BFFFF71EFE801B6428FE
:1008B000F0D820688003F7D42878DFF860828007BA
:1008C0004FF000093ED5DBF80010584611F00C0F30
:1008D00009D00068C0F3810002280BD18D48001FA9
:1008E0000068400206D42068800715D5E868012812
:1008F00009D111E0E868B8B10120C8F80000FFF79D
:10090000F3FD064605E002E1FFF7EEFD801B02283D
:10091000C0D820688007F7D52068296920F0F80042
:1009200040EAC10020600DE0C8F80090FFF7DCFD50
:10093000064604E0FFF7D8FD801B02281FD8206878
:100940008007F7D42878000722D5724E7448696969
:100950006C3671B101210160FFF7C6FD074604E066
:10096000FFF7C2FDC01B022809D830688007F7D501
:100970000EE0C0F80090FFF7B7FD074605E083E002
:10098000FFF7B2FDC01B02287ED830688007F7D47D
:100990002878400768D5DFF87CA100270AF1380ADB
:1009A000DAF80000C0000BD4DAF8001041F08051F2
:1009B000CAF80010DAF80000012700F0805000901B
:1009C000584E3068C00510D4306840F480703060F4
:1009D000FFF78AFD009005E0FFF786FD0099401AB9
:1009E000022851D83068C005F6D54A4EA868683646
:1009F00001280FD00528306810D020F001003060A9
:100A0000306820F004003060A868B8B1FFF76CFDD2
:100A100000900FE0306840F00100F4E740F004007F
:100A20003060F7E7FFF760FD0099411A41F2883026
:100A3000814264D830688007F4D50EE0FFF754FD9A
:100A4000009007E0FFF750FD0099411A41F288300D
:100A5000814254D830688007F4D42FB1DAF80010FE
:100A600021F08051CAF80010A869C0B3DBF800106B
:100A7000C1F3810102294AD00228484607D0C8F8AC
:100A80006000FFF731FD00E039E005463AE04746F7
:100A9000C8F86000FFF728FD064604E0FFF724FDD4
:100AA000801B02282BD820688001F7D4D5E90701E4
:100AB0000843A96A1C4A490802EB01416A6A41EAF3
:100AC0008211084395F82C1040EA01611148001F7B
:100AD000016001203866FFF707FD054605E014E0D8
:100AE000FFF702FD401B022809D820688001F7D5D6
:100AF0000BE000BFFFF7F8FC401B022802D90320DF
:100B0000BDE8F88F20688001F4D40020F8E70120C8
:100B1000F6E7000008380240003802400000474273
:100B2000800E4742007000400000FFFF10B5401EDD
:100B3000B0F1807F01D3012010BD4FF0E02460614F
:100B40000F21601700F0ADFB0020A061072020619D
:100B5000002010BD10B586B0044614216846FFF78A
:100B600079FB0E492068884215D10D4800210268A2
:100B700042F080020260006800F080000590402092
:100B800000900220CDE901010920CDE9031069465A
:100B90000448FFF7B1FB06B010BD0000001800408C
:100BA00030380240001C024070B5044690F83C000A
:100BB0000D4601280DD0012684F83C60022084F8FF
:100BC0003D0042B1042A18D0082A2AD00C2A4DD15F
:100BD00039E0022070BD206800F0A0FA2068816929
:100BE00041F0080181612068816921F0040181617F
:100BF000206881692A69114311E0206800F0BEFA7B
:100C00002068816941F4006181612068816921F473
:100C100080618161206881692A6941EA02218161DC
:100C200024E0206800F0E0FA2068C16941F0080182
:100C3000C1612068C16921F00401C1612068C169F6
:100C40002A69114311E0206800F002FB2068C169A5
:100C500041F40061C1612068C16921F48061C16112
:100C60002068C1692A6941EA0221C16184F83D60B6
:100C7000002084F83C0070BD10B5040003D094F847
:100C80003D0010B107E0012010BD002084F83C00B9
:100C9000204600F00DF8022084F83D00211D206858
:100CA00000F0CAF9012084F83D00002010BD0000CA
:100CB00008B500680649884208D10648016841F035
:100CC00040010160006800F04000009008BD000095
:100CD000001800404038024010B504460068012268
:100CE00000F00EFA0B492068884202D00A49884277
:100CF00003D1416C41F4004141642068816801F0F6
:100D00000701062903D0016841F0010101600020BC
:100D100010BD00000000014000040140FEE700009B
:100D20002DE9F04786B014216846FFF793FA37485B
:100D30000024016841F001010160016801F0010136
:100D40000591016841F080010160016801F08001B6
:100D50000591016841F040010160016801F0400126
:100D60000591016841F002010160016801F0020192
:100D70000591016841F010010160016801F0100166
:100D80000591016841F0200101600068DFF8808072
:100D900000F020004FF4FF750590002229464046E0
:100DA000FFF79CFBDFF86C904FF4006600223146A1
:100DB0004846FFF793FB0122DFF85CA09703394612
:100DC0005046FFF78BFB00950125CDE9015469469C
:100DD00040460394FFF790FA04208DE831006946FD
:100DE0000E48FFF789FA0096CDE901546946484656
:100DF0000394FFF781FA0097CDE901546946504604
:100E00000394FFF779FA06B0BDE8F0873038024066
:100E1000001802400010024000140240000402408A
:100E200010B588B01C216846FFF714FA1248114922
:100E3000002401605921C0E9011440F2E731C0E902
:100E4000031480218161FFF717FF08B1FFF740FA13
:100E50006020CDE90004029400226946064804940B
:100E6000FFF7A2FE08B1FFF733FA0348FFF772FE5F
:100E700008B010BD0018004010000020FEE77047C9
:100E8000704700002DE9F0470F46054691460421C2
:100E90002948FFF717FB294E4FF00008F0B340F642
:100EA000B830FFF717FA002407EBD7773BE000BF15
:100EB000C9EBC900224900EB400001EB800055F866
:100EC000341050F821001F4991FBF0F01B490839FC
:100ED000401E0860322190FBF1F0306005EBC40049
:100EE0004068FFF7F7F94FF400611748FFF7EFFA92
:100EF0004FF480411548FFF7EAFA55F8340007210E
:100F000090FBF1F201FB12010120491C88401049BD
:100F10000A6850400860C6F8008000E008E0012040
:100F2000FFF7D8F9641CB4EB670FC1DBBDE8F087AD
:100F3000C6F80080FAE700000004024034180040C0
:100F40003C16000840420F0000100240001402400E
:100F5000141802407047FFF7CDBA000030B593B0C7
:100F600030216846FFF776F914210CA8FFF772F9D3
:100F70001A480025016841F080510160006800F0C6
:100F8000805011901648016841F4404101600068AA
:100F9000022400F4404011900120009000040190D0
:100FA0008001CDE9064006200890B420CDE909046F
:100FB00004200B906846FFF72BFCFFF727FB0CA9DA
:100FC0000F2081E831004FF4A0500F90E002109004
:100FD00005210CA8FFF752FB13B030BD403802408A
:100FE000007000401048016841F4700101600F4832
:100FF000016841F0010101600C4A002108321160D2
:1010000002680B4B1A400260031D0A4A1A6002680C
:1010100022F48022026005480C3001600249580623
:10102000803908607047000088ED00E00038024019
:10103000FFFFF6FE10300024F0B50268254C264D67
:10104000264E274F274B4FF0804CA04209D06045D9
:1010500007D0A84205D0B04203D0B84201D0984290
:1010600004D122F0700E4A6842EA0E02A0421BD060
:10107000604519D0A84217D0B04215D0B84213D05D
:10108000984211D0184DA8420ED0184DA8420BD04E
:10109000174DA84208D0174DA84205D0164DA842BA
:1010A00002D0164DA84203D122F44075CA682A43E3
:1010B0004D6922F080022A4302608A68C2620A688F
:1010C0008262A04201D0984201D1096901630121E5
:1010D0004161F0BD000001400004004000080040F4
:1010E000000C004000040140004001400044014069
:1010F0000048014000180040001C00400020004053
:1011000010B501F01F030121046A99408C43046269
:10111000016A9A401143016210BD0000F0B5026AF5
:1011200022F001020262036A42688469124E24F0CE
:1011300073050C682C4323F002058B682B430D4D7F
:10114000A84201D0B04205D123F00807CB683B4349
:1011500023F00403A84201D0B04205D14D6922F426
:10116000407215438A692A43426084614968416339
:101170000362F0BD0000014000040140F0B5026AC6
:1011800022F010020262026A436884690D6824F446
:10119000E64444EA05248D6822F0200242EA051262
:1011A0000F4D104EA84201D0B04206D1CF6822F0B8
:1011B000800242EA071222F04002A84201D0B04267
:1011C00007D14D6923F4406343EA85038D6943EAFF
:1011D000850343608461496881630262F0BD000059
:1011E0000000014000040140F0B5026A22F4807260
:1011F0000262026A4368C46922F4007224F0730533
:101200000C68124E2C438D6842EA05220E4DA8420E
:1012100001D0B04206D1CF6822F4006242EA072230
:1012200022F48062A84201D0B04207D14D6923F474
:10123000405343EA05138D6943EA05134360C461D3
:101240004968C1630262F0BD000001400004014032
:1012500030B5026A22F480520262046A4268C369AD
:101260000D6823F4E64343EA05238D6824F4005413
:1012700044EA0534084DA84202D0084DA84204D1E2
:101280004D6922F4804242EA85124260C361496896
:101290000164046230BD0000000001400004014010
:1012A000FEE70907090E002804DB00F1E02080F8C2
:1012B0000014704700F00F0000F1E02080F8141DCA
:1012C000704702E008C8121F08C1002AFAD170470F
:1012D0007047002001E001C1121F002AFBD17047B6
:1012E000FFF710F9FFF73AFEFFF71AFDFFF798FD39
:1012F00000210648FFF7F0FCC624022221460448DC
:10130000FFF7C0FD0A20FEF7E5FFF6E7100000201A
:10131000141300080C000000900100000C000000F5
:10132000900100000C000000900100000C00000083
:10133000900100000D000000900100000E00000070
:10134000900100000F000000900100000E0000005E
:10135000900100000D000000900100000E00000050
:10136000900100000C000000900100000C00000043
:10137000900100000C000000900100000C00000033
:10138000900100000D000000900100000E00000020
:10139000900100000F000000900100000E0000000E
:1013A000900100000F000000900100000F000000FD
:1013B000900100000C000000900100000D000000F2
:1013C000900100000D000000900100000C000000E2
:1013D000640000000C000000320000000C0000005F
:1013E000320000000C000000900100000C00000022
:1013F000900100000C000000C8000000090000007F
:10140000C80000000C000000C80000000D00000033
:10141000C80000000E000000640000000E00000084
:10142000640000000E000000640000000E000000D8
:10143000900100000E000000900100000E0000006E
:10144000C80000000F000000C80000000B000000F2
:10145000900100000B000000900100000A00000055
:101460009001000009000000900100000800000049
:10147000900100000800000090010000080000003A
:101480009001000008000000900100000C00000026
:10149000640000000C000000320000000C0000009E
:1014A000320000000C000000900100000C00000061
:1014B000900100000C000000640000000900000022
:1014C000C80000000C000000640000000D000000D7
:1014D000640000000E000000640000000E00000028
:1014E000320000000E000000320000000E0000007C
:1014F000900100000E000000900100000E000000AE
:10150000C800000008000000C80000000B00000038
:10151000900100000B000000900100000B00000093
:10152000C800000009000000C80000000A00000018
:10153000C80000000B000000C80000000C00000004
:10154000900100000C000000900100000D00000060
:10155000900100000D000000900100000E0000004E
:10156000640000000E000000320000000E000000C9
:10157000320000000E000000900100000E0000008C
:10158000900100000E000000C80000000C000000E8
:10159000C80000000E000000C80000000F0000009E
:1015A000C8000000110000006400000011000000ED
:1015B00032000000110000003200000011000000A5
:1015C00090010000110000009001000011000000D7
:1015D000C800000007000000C80000000F00000065
:1015E000900100000F000000900100000F000000BB
:1015F000C80000000B000000C80000000D00000043
:10160000C80000000E000000C80000000F0000002D
:10161000900100000F000000900100000E0000008B
:10162000900100000D0000002003000000000000F9
:10163000000000000102030406070809DD000000A5
:10164000F800000016010000260100004A01000019
:1016500073010000A0010000B9010000EF010000CB
:101660002C0200004D02000095020000E60200007E
:101670004103000072030000DE0300005804000074
:101680009A0400002A050000CC0500008106000035
:10169000F800000016010000260100004A010000C9
:1016A00073010000A0010000D3010000EF01000061
:1016B0002C0200004D02000095020000E60200002E
:1016C00041030000A7030000DE03000058040000EF
:1016D0009A0400002A050000CC05000081060000E5
:1016E0004D0700008300000093000000A5000000EB
:1016F000AF000000C4000000DD000000F8000000A2
:1017000006010000260100004A0100005E01000001
:1017100089010000B9010000EF0100000D02000086
:101720004D02000095020000BC0200001203000000
:1017300072030000DE03000093000000A50000001B
:10174000AF000000C4000000DD000000F800000051
:1017500016010000260100004A0100005E010000A1
:1017600089010000B9010000EF0100002C02000017
:101770004D02000095020000BC02000012030000B0
:1017800072030000DE03000058040000A500000002
:10179000AF000000C4000000DD000000F800000001
:1017A00016010000380100004A0100005E0100003F
:1017B00089010000B9010000EF0100002C020000C7
:1017C0007002000095020000BC020000120300003D
:1017D00072030000DE03000058040000E004000073
:1017E000AF000000C4000000DD000000EA000000BF
:1017F00006010000260100004A0100005E01000011
:1018000089010000B9010000EF0100002C02000076
:101810007002000095020000BC02000012030000EC
:1018200072030000A7030000190400009A040000DE
:101830002A050000C4000000DD000000EA000000EE
:1018400006010000260100004A01000073010000AB
:1018500089010000B9010000EF0100002C02000026
:101860007002000095020000E60200001203000072
:1018700072030000DE030000190400009A04000057
:101880002A050000CC050000A81800080000002070
:1018900010000000C2120008B81800081000002054
:1018A00040040000D21200080100000010000000F7
:0818B000000000000024F40018
:04000005080001AD41
:00000001FF
